{
  "contractName": "CarbonCreditMarketplace",
  "abi": [
    {
      "inputs": [
        {
          "internalType": "uint256",
          "name": "",
          "type": "uint256"
        }
      ],
      "name": "creditToOwner",
      "outputs": [
        {
          "internalType": "address",
          "name": "",
          "type": "address"
        }
      ],
      "stateMutability": "view",
      "type": "function"
    },
    {
      "inputs": [
        {
          "internalType": "uint256",
          "name": "",
          "type": "uint256"
        }
      ],
      "name": "credits",
      "outputs": [
        {
          "internalType": "uint256",
          "name": "id",
          "type": "uint256"
        },
        {
          "internalType": "address",
          "name": "owner",
          "type": "address"
        },
        {
          "internalType": "uint256",
          "name": "amount",
          "type": "uint256"
        },
        {
          "internalType": "uint256",
          "name": "price",
          "type": "uint256"
        },
        {
          "internalType": "bool",
          "name": "forSale",
          "type": "bool"
        }
      ],
      "stateMutability": "view",
      "type": "function"
    },
    {
      "inputs": [
        {
          "internalType": "uint256",
          "name": "amount",
          "type": "uint256"
        },
        {
          "internalType": "uint256",
          "name": "price",
          "type": "uint256"
        }
      ],
      "name": "mintCredit",
      "outputs": [],
      "stateMutability": "nonpayable",
      "type": "function"
    },
    {
      "inputs": [
        {
          "internalType": "uint256",
          "name": "id",
          "type": "uint256"
        }
      ],
      "name": "buyCredit",
      "outputs": [],
      "stateMutability": "payable",
      "type": "function"
    },
    {
      "inputs": [],
      "name": "listCredits",
      "outputs": [
        {
          "components": [
            {
              "internalType": "uint256",
              "name": "id",
              "type": "uint256"
            },
            {
              "internalType": "address",
              "name": "owner",
              "type": "address"
            },
            {
              "internalType": "uint256",
              "name": "amount",
              "type": "uint256"
            },
            {
              "internalType": "uint256",
              "name": "price",
              "type": "uint256"
            },
            {
              "internalType": "bool",
              "name": "forSale",
              "type": "bool"
            }
          ],
          "internalType": "struct CarbonCreditMarketplace.CarbonCredit[]",
          "name": "",
          "type": "tuple[]"
        }
      ],
      "stateMutability": "view",
      "type": "function"
    }
  ],
  "bytecode": "0x608060405234801561000f575f80fd5b506109908061001d5f395ff3fe608060405260043610610049575f3560e01c8063036a1c221461004d5780635fa8ab831461008d5780637211dde4146100b757806381a11378146100d3578063db22c0521461010f575b5f80fd5b348015610058575f80fd5b50610073600480360381019061006e91906105b7565b610137565b60405161008495949392919061064a565b60405180910390f35b348015610098575f80fd5b506100a16101a2565b6040516100ae91906107d6565b60405180910390f35b6100d160048036038101906100cc91906105b7565b610289565b005b3480156100de575f80fd5b506100f960048036038101906100f491906105b7565b61040a565b60405161010691906107f6565b60405180910390f35b34801561011a575f80fd5b506101356004803603810190610130919061080f565b61043a565b005b5f8181548110610145575f80fd5b905f5260205f2090600502015f91509050805f015490806001015f9054906101000a900473ffffffffffffffffffffffffffffffffffffffff1690806002015490806003015490806004015f9054906101000a900460ff16905085565b60605f805480602002602001604051908101604052809291908181526020015f905b82821015610280578382905f5260205f2090600502016040518060a00160405290815f8201548152602001600182015f9054906101000a900473ffffffffffffffffffffffffffffffffffffffff1673ffffffffffffffffffffffffffffffffffffffff1673ffffffffffffffffffffffffffffffffffffffff1681526020016002820154815260200160038201548152602001600482015f9054906101000a900460ff161515151581525050815260200190600101906101c4565b50505050905090565b5f80828154811061029d5761029c61084d565b5b905f5260205f2090600502019050806004015f9054906101000a900460ff166102fb576040517f08c379a00000000000000000000000000000000000000000000000000000000081526004016102f2906108d4565b60405180910390fd5b8060030154341015610342576040517f08c379a00000000000000000000000000000000000000000000000000000000081526004016103399061093c565b60405180910390fd5b806001015f9054906101000a900473ffffffffffffffffffffffffffffffffffffffff1673ffffffffffffffffffffffffffffffffffffffff166108fc3490811502906040515f60405180830381858888f193505050501580156103a8573d5f803e3d5ffd5b5033816001015f6101000a81548173ffffffffffffffffffffffffffffffffffffffff021916908373ffffffffffffffffffffffffffffffffffffffff1602179055505f816004015f6101000a81548160ff0219169083151502179055505050565b6001602052805f5260405f205f915054906101000a900473ffffffffffffffffffffffffffffffffffffffff1681565b5f808054905090505f6040518060a001604052808381526020013373ffffffffffffffffffffffffffffffffffffffff16815260200185815260200184815260200160011515815250908060018154018082558091505060019003905f5260205f2090600502015f909190919091505f820151815f01556020820151816001015f6101000a81548173ffffffffffffffffffffffffffffffffffffffff021916908373ffffffffffffffffffffffffffffffffffffffff16021790555060408201518160020155606082015181600301556080820151816004015f6101000a81548160ff02191690831515021790555050503360015f8381526020019081526020015f205f6101000a81548173ffffffffffffffffffffffffffffffffffffffff021916908373ffffffffffffffffffffffffffffffffffffffff160217905550505050565b5f80fd5b5f819050919050565b61059681610584565b81146105a0575f80fd5b50565b5f813590506105b18161058d565b92915050565b5f602082840312156105cc576105cb610580565b5b5f6105d9848285016105a3565b91505092915050565b6105eb81610584565b82525050565b5f73ffffffffffffffffffffffffffffffffffffffff82169050919050565b5f61061a826105f1565b9050919050565b61062a81610610565b82525050565b5f8115159050919050565b61064481610630565b82525050565b5f60a08201905061065d5f8301886105e2565b61066a6020830187610621565b61067760408301866105e2565b61068460608301856105e2565b610691608083018461063b565b9695505050505050565b5f81519050919050565b5f82825260208201905092915050565b5f819050602082019050919050565b6106cd81610584565b82525050565b6106dc81610610565b82525050565b6106eb81610630565b82525050565b60a082015f8201516107055f8501826106c4565b50602082015161071860208501826106d3565b50604082015161072b60408501826106c4565b50606082015161073e60608501826106c4565b50608082015161075160808501826106e2565b50505050565b5f61076283836106f1565b60a08301905092915050565b5f602082019050919050565b5f6107848261069b565b61078e81856106a5565b9350610799836106b5565b805f5b838110156107c95781516107b08882610757565b97506107bb8361076e565b92505060018101905061079c565b5085935050505092915050565b5f6020820190508181035f8301526107ee818461077a565b905092915050565b5f6020820190506108095f830184610621565b92915050565b5f806040838503121561082557610824610580565b5b5f610832858286016105a3565b9250506020610843858286016105a3565b9150509250929050565b7f4e487b71000000000000000000000000000000000000000000000000000000005f52603260045260245ffd5b5f82825260208201905092915050565b7f4e6f7420666f722073616c6500000000000000000000000000000000000000005f82015250565b5f6108be600c8361087a565b91506108c98261088a565b602082019050919050565b5f6020820190508181035f8301526108eb816108b2565b9050919050565b7f496e73756666696369656e74207061796d656e740000000000000000000000005f82015250565b5f61092660148361087a565b9150610931826108f2565b602082019050919050565b5f6020820190508181035f8301526109538161091a565b905091905056fea2646970667358221220243dcaaca04bcf24576b84b144240ecb99dfecf53109cc903c4cc022c4caa61264736f6c63430008150033",
  "immutableReferences": {},
  "source": "pragma solidity ^0.8.0;\n\ncontract CarbonCreditMarketplace {\n    struct CarbonCredit {\n        uint256 id;\n        address owner;\n        uint256 amount; // Amount of carbon offset\n        uint256 price;  // Price in Wei\n        bool forSale;   // Status\n    }\n\n    CarbonCredit[] public credits;\n    mapping(uint256 => address) public creditToOwner;\n\n    // Minting Carbon Credit\n    function mintCredit(uint256 amount, uint256 price) public {\n        uint256 id = credits.length;\n        credits.push(CarbonCredit(id, msg.sender, amount, price, true));\n        creditToOwner[id] = msg.sender;\n    }\n\n    // Buy Carbon Credit\n    function buyCredit(uint256 id) public payable {\n        CarbonCredit storage credit = credits[id];\n        require(credit.forSale, \"Not for sale\");\n        require(msg.value >= credit.price, \"Insufficient payment\");\n        payable(credit.owner).transfer(msg.value);\n        credit.owner = msg.sender;\n        credit.forSale = false;\n    }\n\n    // List Credits\n    function listCredits() public view returns (CarbonCredit[] memory) {\n        return credits;\n    }\n}\n",
  "sourcePath": "/home/ask/GreenXchange/backend/contracts/carbonCredit.sol",
  "compiler": {
    "name": "solc",
    "version": "0.8.21+commit.d9974bed.Emscripten.clang"
  },
  "schemaVersion": "3.4.16",
  "updatedAt": "2025-01-19T16:34:22.453Z",
  "devdoc": {
    "kind": "dev",
    "methods": {},
    "version": 1
  },
  "userdoc": {
    "kind": "user",
    "methods": {},
    "version": 1
  }
}